{
	"data": {
		"bytecode": {
			"linkReferences": {},
			"object": "6080604052348015600e575f80fd5b5061095b8061001c5f395ff3fe608060405234801561000f575f80fd5b5060043610610034575f3560e01c806367f72fa914610038578063e501287a14610054575b5f80fd5b610052600480360381019061004d919061041b565b610084565b005b61006e60048036038101906100699190610475565b6100f4565b60405161007b91906105bb565b60405180910390f35b5f808373ffffffffffffffffffffffffffffffffffffffff1673ffffffffffffffffffffffffffffffffffffffff1681526020019081526020015f2081908060018154018082558091505060019003905f5260205f20015f9091909190915090816100ef91906107de565b505050565b6060818073ffffffffffffffffffffffffffffffffffffffff163373ffffffffffffffffffffffffffffffffffffffff1614610165576040517f08c379a000000000000000000000000000000000000000000000000000000000815260040161015c90610907565b60405180910390fd5b5f808473ffffffffffffffffffffffffffffffffffffffff1673ffffffffffffffffffffffffffffffffffffffff1681526020019081526020015f20805480602002602001604051908101604052809291908181526020015f905b82821015610268578382905f5260205f200180546101dd90610608565b80601f016020809104026020016040519081016040528092919081815260200182805461020990610608565b80156102545780601f1061022b57610100808354040283529160200191610254565b820191905f5260205f20905b81548152906001019060200180831161023757829003601f168201915b5050505050815260200190600101906101c0565b50505050915050919050565b5f604051905090565b5f80fd5b5f80fd5b5f73ffffffffffffffffffffffffffffffffffffffff82169050919050565b5f6102ae82610285565b9050919050565b6102be816102a4565b81146102c8575f80fd5b50565b5f813590506102d9816102b5565b92915050565b5f80fd5b5f80fd5b5f601f19601f8301169050919050565b7f4e487b71000000000000000000000000000000000000000000000000000000005f52604160045260245ffd5b61032d826102e7565b810181811067ffffffffffffffff8211171561034c5761034b6102f7565b5b80604052505050565b5f61035e610274565b905061036a8282610324565b919050565b5f67ffffffffffffffff821115610389576103886102f7565b5b610392826102e7565b9050602081019050919050565b828183375f83830152505050565b5f6103bf6103ba8461036f565b610355565b9050828152602081018484840111156103db576103da6102e3565b5b6103e684828561039f565b509392505050565b5f82601f830112610402576104016102df565b5b81356104128482602086016103ad565b91505092915050565b5f80604083850312156104315761043061027d565b5b5f61043e858286016102cb565b925050602083013567ffffffffffffffff81111561045f5761045e610281565b5b61046b858286016103ee565b9150509250929050565b5f6020828403121561048a5761048961027d565b5b5f610497848285016102cb565b91505092915050565b5f81519050919050565b5f82825260208201905092915050565b5f819050602082019050919050565b5f81519050919050565b5f82825260208201905092915050565b8281835e5f83830152505050565b5f6104fb826104c9565b61050581856104d3565b93506105158185602086016104e3565b61051e816102e7565b840191505092915050565b5f61053483836104f1565b905092915050565b5f602082019050919050565b5f610552826104a0565b61055c81856104aa565b93508360208202850161056e856104ba565b805f5b858110156105a9578484038952815161058a8582610529565b94506105958361053c565b925060208a01995050600181019050610571565b50829750879550505050505092915050565b5f6020820190508181035f8301526105d38184610548565b905092915050565b7f4e487b71000000000000000000000000000000000000000000000000000000005f52602260045260245ffd5b5f600282049050600182168061061f57607f821691505b602082108103610632576106316105db565b5b50919050565b5f819050815f5260205f209050919050565b5f6020601f8301049050919050565b5f82821b905092915050565b5f600883026106947fffffffffffffffffffffffffffffffffffffffffffffffffffffffffffffffff82610659565b61069e8683610659565b95508019841693508086168417925050509392505050565b5f819050919050565b5f819050919050565b5f6106e26106dd6106d8846106b6565b6106bf565b6106b6565b9050919050565b5f819050919050565b6106fb836106c8565b61070f610707826106e9565b848454610665565b825550505050565b5f90565b610723610717565b61072e8184846106f2565b505050565b5b81811015610751576107465f8261071b565b600181019050610734565b5050565b601f8211156107965761076781610638565b6107708461064a565b8101602085101561077f578190505b61079361078b8561064a565b830182610733565b50505b505050565b5f82821c905092915050565b5f6107b65f198460080261079b565b1980831691505092915050565b5f6107ce83836107a7565b9150826002028217905092915050565b6107e7826104c9565b67ffffffffffffffff811115610800576107ff6102f7565b5b61080a8254610608565b610815828285610755565b5f60209050601f831160018114610846575f8415610834578287015190505b61083e85826107c3565b8655506108a5565b601f19841661085486610638565b5f5b8281101561087b57848901518255600182019150602085019450602081019050610856565b868310156108985784890151610894601f8916826107a7565b8355505b6001600288020188555050505b505050505050565b5f82825260208201905092915050565b7f596f7520617265206e6f7420617574686f72697a6564000000000000000000005f82015250565b5f6108f16016836108ad565b91506108fc826108bd565b602082019050919050565b5f6020820190508181035f83015261091e816108e5565b905091905056fea2646970667358221220c7c9f55c6843b533b6e8ccffd81336fe0863c5a085c14744f9655504189ab72864736f6c634300081a0033",
			"opcodes": "PUSH1 0x80 PUSH1 0x40 MSTORE CALLVALUE DUP1 ISZERO PUSH1 0xE JUMPI PUSH0 DUP1 REVERT JUMPDEST POP PUSH2 0x95B DUP1 PUSH2 0x1C PUSH0 CODECOPY PUSH0 RETURN INVALID PUSH1 0x80 PUSH1 0x40 MSTORE CALLVALUE DUP1 ISZERO PUSH2 0xF JUMPI PUSH0 DUP1 REVERT JUMPDEST POP PUSH1 0x4 CALLDATASIZE LT PUSH2 0x34 JUMPI PUSH0 CALLDATALOAD PUSH1 0xE0 SHR DUP1 PUSH4 0x67F72FA9 EQ PUSH2 0x38 JUMPI DUP1 PUSH4 0xE501287A EQ PUSH2 0x54 JUMPI JUMPDEST PUSH0 DUP1 REVERT JUMPDEST PUSH2 0x52 PUSH1 0x4 DUP1 CALLDATASIZE SUB DUP2 ADD SWAP1 PUSH2 0x4D SWAP2 SWAP1 PUSH2 0x41B JUMP JUMPDEST PUSH2 0x84 JUMP JUMPDEST STOP JUMPDEST PUSH2 0x6E PUSH1 0x4 DUP1 CALLDATASIZE SUB DUP2 ADD SWAP1 PUSH2 0x69 SWAP2 SWAP1 PUSH2 0x475 JUMP JUMPDEST PUSH2 0xF4 JUMP JUMPDEST PUSH1 0x40 MLOAD PUSH2 0x7B SWAP2 SWAP1 PUSH2 0x5BB JUMP JUMPDEST PUSH1 0x40 MLOAD DUP1 SWAP2 SUB SWAP1 RETURN JUMPDEST PUSH0 DUP1 DUP4 PUSH20 0xFFFFFFFFFFFFFFFFFFFFFFFFFFFFFFFFFFFFFFFF AND PUSH20 0xFFFFFFFFFFFFFFFFFFFFFFFFFFFFFFFFFFFFFFFF AND DUP2 MSTORE PUSH1 0x20 ADD SWAP1 DUP2 MSTORE PUSH1 0x20 ADD PUSH0 KECCAK256 DUP2 SWAP1 DUP1 PUSH1 0x1 DUP2 SLOAD ADD DUP1 DUP3 SSTORE DUP1 SWAP2 POP POP PUSH1 0x1 SWAP1 SUB SWAP1 PUSH0 MSTORE PUSH1 0x20 PUSH0 KECCAK256 ADD PUSH0 SWAP1 SWAP2 SWAP1 SWAP2 SWAP1 SWAP2 POP SWAP1 DUP2 PUSH2 0xEF SWAP2 SWAP1 PUSH2 0x7DE JUMP JUMPDEST POP POP POP JUMP JUMPDEST PUSH1 0x60 DUP2 DUP1 PUSH20 0xFFFFFFFFFFFFFFFFFFFFFFFFFFFFFFFFFFFFFFFF AND CALLER PUSH20 0xFFFFFFFFFFFFFFFFFFFFFFFFFFFFFFFFFFFFFFFF AND EQ PUSH2 0x165 JUMPI PUSH1 0x40 MLOAD PUSH32 0x8C379A000000000000000000000000000000000000000000000000000000000 DUP2 MSTORE PUSH1 0x4 ADD PUSH2 0x15C SWAP1 PUSH2 0x907 JUMP JUMPDEST PUSH1 0x40 MLOAD DUP1 SWAP2 SUB SWAP1 REVERT JUMPDEST PUSH0 DUP1 DUP5 PUSH20 0xFFFFFFFFFFFFFFFFFFFFFFFFFFFFFFFFFFFFFFFF AND PUSH20 0xFFFFFFFFFFFFFFFFFFFFFFFFFFFFFFFFFFFFFFFF AND DUP2 MSTORE PUSH1 0x20 ADD SWAP1 DUP2 MSTORE PUSH1 0x20 ADD PUSH0 KECCAK256 DUP1 SLOAD DUP1 PUSH1 0x20 MUL PUSH1 0x20 ADD PUSH1 0x40 MLOAD SWAP1 DUP2 ADD PUSH1 0x40 MSTORE DUP1 SWAP3 SWAP2 SWAP1 DUP2 DUP2 MSTORE PUSH1 0x20 ADD PUSH0 SWAP1 JUMPDEST DUP3 DUP3 LT ISZERO PUSH2 0x268 JUMPI DUP4 DUP3 SWAP1 PUSH0 MSTORE PUSH1 0x20 PUSH0 KECCAK256 ADD DUP1 SLOAD PUSH2 0x1DD SWAP1 PUSH2 0x608 JUMP JUMPDEST DUP1 PUSH1 0x1F ADD PUSH1 0x20 DUP1 SWAP2 DIV MUL PUSH1 0x20 ADD PUSH1 0x40 MLOAD SWAP1 DUP2 ADD PUSH1 0x40 MSTORE DUP1 SWAP3 SWAP2 SWAP1 DUP2 DUP2 MSTORE PUSH1 0x20 ADD DUP3 DUP1 SLOAD PUSH2 0x209 SWAP1 PUSH2 0x608 JUMP JUMPDEST DUP1 ISZERO PUSH2 0x254 JUMPI DUP1 PUSH1 0x1F LT PUSH2 0x22B JUMPI PUSH2 0x100 DUP1 DUP4 SLOAD DIV MUL DUP4 MSTORE SWAP2 PUSH1 0x20 ADD SWAP2 PUSH2 0x254 JUMP JUMPDEST DUP3 ADD SWAP2 SWAP1 PUSH0 MSTORE PUSH1 0x20 PUSH0 KECCAK256 SWAP1 JUMPDEST DUP2 SLOAD DUP2 MSTORE SWAP1 PUSH1 0x1 ADD SWAP1 PUSH1 0x20 ADD DUP1 DUP4 GT PUSH2 0x237 JUMPI DUP3 SWAP1 SUB PUSH1 0x1F AND DUP3 ADD SWAP2 JUMPDEST POP POP POP POP POP DUP2 MSTORE PUSH1 0x20 ADD SWAP1 PUSH1 0x1 ADD SWAP1 PUSH2 0x1C0 JUMP JUMPDEST POP POP POP POP SWAP2 POP POP SWAP2 SWAP1 POP JUMP JUMPDEST PUSH0 PUSH1 0x40 MLOAD SWAP1 POP SWAP1 JUMP JUMPDEST PUSH0 DUP1 REVERT JUMPDEST PUSH0 DUP1 REVERT JUMPDEST PUSH0 PUSH20 0xFFFFFFFFFFFFFFFFFFFFFFFFFFFFFFFFFFFFFFFF DUP3 AND SWAP1 POP SWAP2 SWAP1 POP JUMP JUMPDEST PUSH0 PUSH2 0x2AE DUP3 PUSH2 0x285 JUMP JUMPDEST SWAP1 POP SWAP2 SWAP1 POP JUMP JUMPDEST PUSH2 0x2BE DUP2 PUSH2 0x2A4 JUMP JUMPDEST DUP2 EQ PUSH2 0x2C8 JUMPI PUSH0 DUP1 REVERT JUMPDEST POP JUMP JUMPDEST PUSH0 DUP2 CALLDATALOAD SWAP1 POP PUSH2 0x2D9 DUP2 PUSH2 0x2B5 JUMP JUMPDEST SWAP3 SWAP2 POP POP JUMP JUMPDEST PUSH0 DUP1 REVERT JUMPDEST PUSH0 DUP1 REVERT JUMPDEST PUSH0 PUSH1 0x1F NOT PUSH1 0x1F DUP4 ADD AND SWAP1 POP SWAP2 SWAP1 POP JUMP JUMPDEST PUSH32 0x4E487B7100000000000000000000000000000000000000000000000000000000 PUSH0 MSTORE PUSH1 0x41 PUSH1 0x4 MSTORE PUSH1 0x24 PUSH0 REVERT JUMPDEST PUSH2 0x32D DUP3 PUSH2 0x2E7 JUMP JUMPDEST DUP2 ADD DUP2 DUP2 LT PUSH8 0xFFFFFFFFFFFFFFFF DUP3 GT OR ISZERO PUSH2 0x34C JUMPI PUSH2 0x34B PUSH2 0x2F7 JUMP JUMPDEST JUMPDEST DUP1 PUSH1 0x40 MSTORE POP POP POP JUMP JUMPDEST PUSH0 PUSH2 0x35E PUSH2 0x274 JUMP JUMPDEST SWAP1 POP PUSH2 0x36A DUP3 DUP3 PUSH2 0x324 JUMP JUMPDEST SWAP2 SWAP1 POP JUMP JUMPDEST PUSH0 PUSH8 0xFFFFFFFFFFFFFFFF DUP3 GT ISZERO PUSH2 0x389 JUMPI PUSH2 0x388 PUSH2 0x2F7 JUMP JUMPDEST JUMPDEST PUSH2 0x392 DUP3 PUSH2 0x2E7 JUMP JUMPDEST SWAP1 POP PUSH1 0x20 DUP2 ADD SWAP1 POP SWAP2 SWAP1 POP JUMP JUMPDEST DUP3 DUP2 DUP4 CALLDATACOPY PUSH0 DUP4 DUP4 ADD MSTORE POP POP POP JUMP JUMPDEST PUSH0 PUSH2 0x3BF PUSH2 0x3BA DUP5 PUSH2 0x36F JUMP JUMPDEST PUSH2 0x355 JUMP JUMPDEST SWAP1 POP DUP3 DUP2 MSTORE PUSH1 0x20 DUP2 ADD DUP5 DUP5 DUP5 ADD GT ISZERO PUSH2 0x3DB JUMPI PUSH2 0x3DA PUSH2 0x2E3 JUMP JUMPDEST JUMPDEST PUSH2 0x3E6 DUP5 DUP3 DUP6 PUSH2 0x39F JUMP JUMPDEST POP SWAP4 SWAP3 POP POP POP JUMP JUMPDEST PUSH0 DUP3 PUSH1 0x1F DUP4 ADD SLT PUSH2 0x402 JUMPI PUSH2 0x401 PUSH2 0x2DF JUMP JUMPDEST JUMPDEST DUP2 CALLDATALOAD PUSH2 0x412 DUP5 DUP3 PUSH1 0x20 DUP7 ADD PUSH2 0x3AD JUMP JUMPDEST SWAP2 POP POP SWAP3 SWAP2 POP POP JUMP JUMPDEST PUSH0 DUP1 PUSH1 0x40 DUP4 DUP6 SUB SLT ISZERO PUSH2 0x431 JUMPI PUSH2 0x430 PUSH2 0x27D JUMP JUMPDEST JUMPDEST PUSH0 PUSH2 0x43E DUP6 DUP3 DUP7 ADD PUSH2 0x2CB JUMP JUMPDEST SWAP3 POP POP PUSH1 0x20 DUP4 ADD CALLDATALOAD PUSH8 0xFFFFFFFFFFFFFFFF DUP2 GT ISZERO PUSH2 0x45F JUMPI PUSH2 0x45E PUSH2 0x281 JUMP JUMPDEST JUMPDEST PUSH2 0x46B DUP6 DUP3 DUP7 ADD PUSH2 0x3EE JUMP JUMPDEST SWAP2 POP POP SWAP3 POP SWAP3 SWAP1 POP JUMP JUMPDEST PUSH0 PUSH1 0x20 DUP3 DUP5 SUB SLT ISZERO PUSH2 0x48A JUMPI PUSH2 0x489 PUSH2 0x27D JUMP JUMPDEST JUMPDEST PUSH0 PUSH2 0x497 DUP5 DUP3 DUP6 ADD PUSH2 0x2CB JUMP JUMPDEST SWAP2 POP POP SWAP3 SWAP2 POP POP JUMP JUMPDEST PUSH0 DUP2 MLOAD SWAP1 POP SWAP2 SWAP1 POP JUMP JUMPDEST PUSH0 DUP3 DUP3 MSTORE PUSH1 0x20 DUP3 ADD SWAP1 POP SWAP3 SWAP2 POP POP JUMP JUMPDEST PUSH0 DUP2 SWAP1 POP PUSH1 0x20 DUP3 ADD SWAP1 POP SWAP2 SWAP1 POP JUMP JUMPDEST PUSH0 DUP2 MLOAD SWAP1 POP SWAP2 SWAP1 POP JUMP JUMPDEST PUSH0 DUP3 DUP3 MSTORE PUSH1 0x20 DUP3 ADD SWAP1 POP SWAP3 SWAP2 POP POP JUMP JUMPDEST DUP3 DUP2 DUP4 MCOPY PUSH0 DUP4 DUP4 ADD MSTORE POP POP POP JUMP JUMPDEST PUSH0 PUSH2 0x4FB DUP3 PUSH2 0x4C9 JUMP JUMPDEST PUSH2 0x505 DUP2 DUP6 PUSH2 0x4D3 JUMP JUMPDEST SWAP4 POP PUSH2 0x515 DUP2 DUP6 PUSH1 0x20 DUP7 ADD PUSH2 0x4E3 JUMP JUMPDEST PUSH2 0x51E DUP2 PUSH2 0x2E7 JUMP JUMPDEST DUP5 ADD SWAP2 POP POP SWAP3 SWAP2 POP POP JUMP JUMPDEST PUSH0 PUSH2 0x534 DUP4 DUP4 PUSH2 0x4F1 JUMP JUMPDEST SWAP1 POP SWAP3 SWAP2 POP POP JUMP JUMPDEST PUSH0 PUSH1 0x20 DUP3 ADD SWAP1 POP SWAP2 SWAP1 POP JUMP JUMPDEST PUSH0 PUSH2 0x552 DUP3 PUSH2 0x4A0 JUMP JUMPDEST PUSH2 0x55C DUP2 DUP6 PUSH2 0x4AA JUMP JUMPDEST SWAP4 POP DUP4 PUSH1 0x20 DUP3 MUL DUP6 ADD PUSH2 0x56E DUP6 PUSH2 0x4BA JUMP JUMPDEST DUP1 PUSH0 JUMPDEST DUP6 DUP2 LT ISZERO PUSH2 0x5A9 JUMPI DUP5 DUP5 SUB DUP10 MSTORE DUP2 MLOAD PUSH2 0x58A DUP6 DUP3 PUSH2 0x529 JUMP JUMPDEST SWAP5 POP PUSH2 0x595 DUP4 PUSH2 0x53C JUMP JUMPDEST SWAP3 POP PUSH1 0x20 DUP11 ADD SWAP10 POP POP PUSH1 0x1 DUP2 ADD SWAP1 POP PUSH2 0x571 JUMP JUMPDEST POP DUP3 SWAP8 POP DUP8 SWAP6 POP POP POP POP POP POP SWAP3 SWAP2 POP POP JUMP JUMPDEST PUSH0 PUSH1 0x20 DUP3 ADD SWAP1 POP DUP2 DUP2 SUB PUSH0 DUP4 ADD MSTORE PUSH2 0x5D3 DUP2 DUP5 PUSH2 0x548 JUMP JUMPDEST SWAP1 POP SWAP3 SWAP2 POP POP JUMP JUMPDEST PUSH32 0x4E487B7100000000000000000000000000000000000000000000000000000000 PUSH0 MSTORE PUSH1 0x22 PUSH1 0x4 MSTORE PUSH1 0x24 PUSH0 REVERT JUMPDEST PUSH0 PUSH1 0x2 DUP3 DIV SWAP1 POP PUSH1 0x1 DUP3 AND DUP1 PUSH2 0x61F JUMPI PUSH1 0x7F DUP3 AND SWAP2 POP JUMPDEST PUSH1 0x20 DUP3 LT DUP2 SUB PUSH2 0x632 JUMPI PUSH2 0x631 PUSH2 0x5DB JUMP JUMPDEST JUMPDEST POP SWAP2 SWAP1 POP JUMP JUMPDEST PUSH0 DUP2 SWAP1 POP DUP2 PUSH0 MSTORE PUSH1 0x20 PUSH0 KECCAK256 SWAP1 POP SWAP2 SWAP1 POP JUMP JUMPDEST PUSH0 PUSH1 0x20 PUSH1 0x1F DUP4 ADD DIV SWAP1 POP SWAP2 SWAP1 POP JUMP JUMPDEST PUSH0 DUP3 DUP3 SHL SWAP1 POP SWAP3 SWAP2 POP POP JUMP JUMPDEST PUSH0 PUSH1 0x8 DUP4 MUL PUSH2 0x694 PUSH32 0xFFFFFFFFFFFFFFFFFFFFFFFFFFFFFFFFFFFFFFFFFFFFFFFFFFFFFFFFFFFFFFFF DUP3 PUSH2 0x659 JUMP JUMPDEST PUSH2 0x69E DUP7 DUP4 PUSH2 0x659 JUMP JUMPDEST SWAP6 POP DUP1 NOT DUP5 AND SWAP4 POP DUP1 DUP7 AND DUP5 OR SWAP3 POP POP POP SWAP4 SWAP3 POP POP POP JUMP JUMPDEST PUSH0 DUP2 SWAP1 POP SWAP2 SWAP1 POP JUMP JUMPDEST PUSH0 DUP2 SWAP1 POP SWAP2 SWAP1 POP JUMP JUMPDEST PUSH0 PUSH2 0x6E2 PUSH2 0x6DD PUSH2 0x6D8 DUP5 PUSH2 0x6B6 JUMP JUMPDEST PUSH2 0x6BF JUMP JUMPDEST PUSH2 0x6B6 JUMP JUMPDEST SWAP1 POP SWAP2 SWAP1 POP JUMP JUMPDEST PUSH0 DUP2 SWAP1 POP SWAP2 SWAP1 POP JUMP JUMPDEST PUSH2 0x6FB DUP4 PUSH2 0x6C8 JUMP JUMPDEST PUSH2 0x70F PUSH2 0x707 DUP3 PUSH2 0x6E9 JUMP JUMPDEST DUP5 DUP5 SLOAD PUSH2 0x665 JUMP JUMPDEST DUP3 SSTORE POP POP POP POP JUMP JUMPDEST PUSH0 SWAP1 JUMP JUMPDEST PUSH2 0x723 PUSH2 0x717 JUMP JUMPDEST PUSH2 0x72E DUP2 DUP5 DUP5 PUSH2 0x6F2 JUMP JUMPDEST POP POP POP JUMP JUMPDEST JUMPDEST DUP2 DUP2 LT ISZERO PUSH2 0x751 JUMPI PUSH2 0x746 PUSH0 DUP3 PUSH2 0x71B JUMP JUMPDEST PUSH1 0x1 DUP2 ADD SWAP1 POP PUSH2 0x734 JUMP JUMPDEST POP POP JUMP JUMPDEST PUSH1 0x1F DUP3 GT ISZERO PUSH2 0x796 JUMPI PUSH2 0x767 DUP2 PUSH2 0x638 JUMP JUMPDEST PUSH2 0x770 DUP5 PUSH2 0x64A JUMP JUMPDEST DUP2 ADD PUSH1 0x20 DUP6 LT ISZERO PUSH2 0x77F JUMPI DUP2 SWAP1 POP JUMPDEST PUSH2 0x793 PUSH2 0x78B DUP6 PUSH2 0x64A JUMP JUMPDEST DUP4 ADD DUP3 PUSH2 0x733 JUMP JUMPDEST POP POP JUMPDEST POP POP POP JUMP JUMPDEST PUSH0 DUP3 DUP3 SHR SWAP1 POP SWAP3 SWAP2 POP POP JUMP JUMPDEST PUSH0 PUSH2 0x7B6 PUSH0 NOT DUP5 PUSH1 0x8 MUL PUSH2 0x79B JUMP JUMPDEST NOT DUP1 DUP4 AND SWAP2 POP POP SWAP3 SWAP2 POP POP JUMP JUMPDEST PUSH0 PUSH2 0x7CE DUP4 DUP4 PUSH2 0x7A7 JUMP JUMPDEST SWAP2 POP DUP3 PUSH1 0x2 MUL DUP3 OR SWAP1 POP SWAP3 SWAP2 POP POP JUMP JUMPDEST PUSH2 0x7E7 DUP3 PUSH2 0x4C9 JUMP JUMPDEST PUSH8 0xFFFFFFFFFFFFFFFF DUP2 GT ISZERO PUSH2 0x800 JUMPI PUSH2 0x7FF PUSH2 0x2F7 JUMP JUMPDEST JUMPDEST PUSH2 0x80A DUP3 SLOAD PUSH2 0x608 JUMP JUMPDEST PUSH2 0x815 DUP3 DUP3 DUP6 PUSH2 0x755 JUMP JUMPDEST PUSH0 PUSH1 0x20 SWAP1 POP PUSH1 0x1F DUP4 GT PUSH1 0x1 DUP2 EQ PUSH2 0x846 JUMPI PUSH0 DUP5 ISZERO PUSH2 0x834 JUMPI DUP3 DUP8 ADD MLOAD SWAP1 POP JUMPDEST PUSH2 0x83E DUP6 DUP3 PUSH2 0x7C3 JUMP JUMPDEST DUP7 SSTORE POP PUSH2 0x8A5 JUMP JUMPDEST PUSH1 0x1F NOT DUP5 AND PUSH2 0x854 DUP7 PUSH2 0x638 JUMP JUMPDEST PUSH0 JUMPDEST DUP3 DUP2 LT ISZERO PUSH2 0x87B JUMPI DUP5 DUP10 ADD MLOAD DUP3 SSTORE PUSH1 0x1 DUP3 ADD SWAP2 POP PUSH1 0x20 DUP6 ADD SWAP5 POP PUSH1 0x20 DUP2 ADD SWAP1 POP PUSH2 0x856 JUMP JUMPDEST DUP7 DUP4 LT ISZERO PUSH2 0x898 JUMPI DUP5 DUP10 ADD MLOAD PUSH2 0x894 PUSH1 0x1F DUP10 AND DUP3 PUSH2 0x7A7 JUMP JUMPDEST DUP4 SSTORE POP JUMPDEST PUSH1 0x1 PUSH1 0x2 DUP9 MUL ADD DUP9 SSTORE POP POP POP JUMPDEST POP POP POP POP POP POP JUMP JUMPDEST PUSH0 DUP3 DUP3 MSTORE PUSH1 0x20 DUP3 ADD SWAP1 POP SWAP3 SWAP2 POP POP JUMP JUMPDEST PUSH32 0x596F7520617265206E6F7420617574686F72697A656400000000000000000000 PUSH0 DUP3 ADD MSTORE POP JUMP JUMPDEST PUSH0 PUSH2 0x8F1 PUSH1 0x16 DUP4 PUSH2 0x8AD JUMP JUMPDEST SWAP2 POP PUSH2 0x8FC DUP3 PUSH2 0x8BD JUMP JUMPDEST PUSH1 0x20 DUP3 ADD SWAP1 POP SWAP2 SWAP1 POP JUMP JUMPDEST PUSH0 PUSH1 0x20 DUP3 ADD SWAP1 POP DUP2 DUP2 SUB PUSH0 DUP4 ADD MSTORE PUSH2 0x91E DUP2 PUSH2 0x8E5 JUMP JUMPDEST SWAP1 POP SWAP2 SWAP1 POP JUMP INVALID LOG2 PUSH5 0x6970667358 0x22 SLT KECCAK256 0xC7 0xC9 CREATE2 TLOAD PUSH9 0x43B533B6E8CCFFD813 CALLDATASIZE INVALID ADDMOD PUSH4 0xC5A085C1 SELFBALANCE PREVRANDAO 0xF9 PUSH6 0x5504189AB728 PUSH5 0x736F6C6343 STOP ADDMOD BYTE STOP CALLER "
		},
		"gasEstimates": {
			"creation": {
				"codeDepositCost": "479000",
				"executionCost": "509",
				"totalCost": "479509"
			},
			"external": {
				"uploadFile(address,string)": "infinite",
				"viewFiles(address)": "infinite"
			}
		},
		"methodIdentifiers": {
			"uploadFile(address,string)": "67f72fa9",
			"viewFiles(address)": "e501287a"
		}
	},
	"abi": [
		{
			"inputs": [
				{
					"internalType": "address",
					"name": "_user",
					"type": "address"
				},
				{
					"internalType": "string",
					"name": "_ipfsHash",
					"type": "string"
				}
			],
			"name": "uploadFile",
			"outputs": [],
			"stateMutability": "nonpayable",
			"type": "function"
		},
		{
			"inputs": [
				{
					"internalType": "address",
					"name": "_user",
					"type": "address"
				}
			],
			"name": "viewFiles",
			"outputs": [
				{
					"internalType": "string[]",
					"name": "",
					"type": "string[]"
				}
			],
			"stateMutability": "view",
			"type": "function"
		}
	]
}